{
  "address": "0x6fd62436c0ef51508D15198034353E22DC2778dE",
  "abi": [
    {
      "inputs": [
        {
          "internalType": "address",
          "name": "_usdcTokenAddress",
          "type": "address"
        }
      ],
      "stateMutability": "nonpayable",
      "type": "constructor"
    },
    {
      "inputs": [],
      "name": "AlreadyPayed",
      "type": "error"
    },
    {
      "inputs": [],
      "name": "InvalidAmount",
      "type": "error"
    },
    {
      "inputs": [],
      "name": "InvalidPayer",
      "type": "error"
    },
    {
      "inputs": [],
      "name": "NotEnoughMoney",
      "type": "error"
    },
    {
      "inputs": [],
      "name": "NotPayed",
      "type": "error"
    },
    {
      "anonymous": false,
      "inputs": [
        {
          "indexed": false,
          "internalType": "address",
          "name": "contributor",
          "type": "address"
        },
        {
          "indexed": false,
          "internalType": "uint256",
          "name": "amount",
          "type": "uint256"
        },
        {
          "indexed": false,
          "internalType": "address",
          "name": "receiver",
          "type": "address"
        }
      ],
      "name": "PaymentMade",
      "type": "event"
    },
    {
      "anonymous": false,
      "inputs": [
        {
          "indexed": false,
          "internalType": "uint256",
          "name": "totalTransaction",
          "type": "uint256"
        }
      ],
      "name": "totalTransaction",
      "type": "event"
    },
    {
      "anonymous": false,
      "inputs": [
        {
          "indexed": true,
          "internalType": "address",
          "name": "sender",
          "type": "address"
        },
        {
          "indexed": true,
          "internalType": "address",
          "name": "receiver",
          "type": "address"
        },
        {
          "indexed": false,
          "internalType": "uint256",
          "name": "WeiAmount",
          "type": "uint256"
        },
        {
          "indexed": false,
          "internalType": "uint256",
          "name": "timestamp",
          "type": "uint256"
        }
      ],
      "name": "transactionLog",
      "type": "event"
    },
    {
      "inputs": [
        {
          "internalType": "address",
          "name": "wallet",
          "type": "address"
        }
      ],
      "name": "getTransactionsReceivedByAddress",
      "outputs": [
        {
          "internalType": "address[]",
          "name": "",
          "type": "address[]"
        },
        {
          "internalType": "uint256[]",
          "name": "",
          "type": "uint256[]"
        },
        {
          "internalType": "uint256[]",
          "name": "",
          "type": "uint256[]"
        }
      ],
      "stateMutability": "view",
      "type": "function"
    },
    {
      "inputs": [
        {
          "internalType": "address",
          "name": "",
          "type": "address"
        }
      ],
      "name": "payer",
      "outputs": [
        {
          "internalType": "uint256",
          "name": "",
          "type": "uint256"
        }
      ],
      "stateMutability": "view",
      "type": "function"
    },
    {
      "inputs": [
        {
          "internalType": "uint256",
          "name": "amount",
          "type": "uint256"
        },
        {
          "internalType": "address",
          "name": "seller",
          "type": "address"
        },
        {
          "internalType": "address",
          "name": "arbiter",
          "type": "address"
        }
      ],
      "name": "pre_payment",
      "outputs": [],
      "stateMutability": "nonpayable",
      "type": "function"
    },
    {
      "inputs": [],
      "name": "totalFunds",
      "outputs": [
        {
          "internalType": "uint256",
          "name": "",
          "type": "uint256"
        }
      ],
      "stateMutability": "view",
      "type": "function"
    },
    {
      "inputs": [
        {
          "internalType": "uint256",
          "name": "",
          "type": "uint256"
        }
      ],
      "name": "transactions",
      "outputs": [
        {
          "internalType": "address",
          "name": "sender",
          "type": "address"
        },
        {
          "internalType": "address",
          "name": "receiver",
          "type": "address"
        },
        {
          "internalType": "uint256",
          "name": "amountWei",
          "type": "uint256"
        },
        {
          "internalType": "uint256",
          "name": "timestamp",
          "type": "uint256"
        }
      ],
      "stateMutability": "view",
      "type": "function"
    },
    {
      "inputs": [],
      "name": "usdcTokenAddress",
      "outputs": [
        {
          "internalType": "address",
          "name": "",
          "type": "address"
        }
      ],
      "stateMutability": "view",
      "type": "function"
    }
  ],
  "transactionHash": "0x11a2588cfd8ae3f965b5613672e6a41fb3aa9d254facc5ba2faf859e6bc085e1",
  "args": [
    "0xC443a9e208f26426aecC4C48B43b032F1D8eDf2E"
  ],
  "numDeployments": 1,
  "solcInputHash": "7f5592ecfed91678f9da312e9164b693",
  "bytecode": "0x608060405234801561001057600080fd5b5060405161094238038061094283398101604081905261002f91610054565b600180546001600160a01b0319166001600160a01b0392909216919091179055610084565b60006020828403121561006657600080fd5b81516001600160a01b038116811461007d57600080fd5b9392505050565b6108af806100936000396000f3fe608060405234801561001057600080fd5b50600436106100625760003560e01c80631e58973b1461006757806377b53ece1461007c578063968ed600146100ac5780639ace38c2146100c3578063e5b73e0814610101578063fb62fcf014610121575b600080fd5b61007a6100753660046106bc565b610143565b005b60015461008f906001600160a01b031681565b6040516001600160a01b0390911681526020015b60405180910390f35b6100b560005481565b6040519081526020016100a3565b6100d66100d13660046106f8565b6103ad565b604080516001600160a01b0395861681529490931660208501529183015260608201526080016100a3565b6100b561010f366004610711565b60026020526000908152604090205481565b61013461012f366004610711565b6103f3565b6040516100a39392919061076e565b6001546040516323b872dd60e01b8152336004820152306024820152604481018590526000916001600160a01b0316906323b872dd906064016020604051808303816000875af115801561019b573d6000803e3d6000fd5b505050506040513d601f19601f820116820180604052508101906101bf91906107e3565b9050806102095760405162461bcd60e51b81526020600482015260146024820152731554d110c81d1c985b9cd9995c8819985a5b195960621b604482015260640160405180910390fd5b8360008082825461021a919061081b565b909155505060408051608081018252338082526001600160a01b0386811660208401908152838501898152426060860181815260038054600181018255600091909152965160049097027fc2575a0e9e593c00f959f8c92f12db2869c3395a3b0502d05e2516446f71f85b810180549887166001600160a01b0319998a1617905593517fc2575a0e9e593c00f959f8c92f12db2869c3395a3b0502d05e2516446f71f85c8501805491909616971696909617909355517fc2575a0e9e593c00f959f8c92f12db2869c3395a3b0502d05e2516446f71f85d82015592517fc2575a0e9e593c00f959f8c92f12db2869c3395a3b0502d05e2516446f71f85e9093019290925591513092917fc2719a277c2ba2977df8f44b8caf9ea470e66a62a082e037035596f9283a51859161035791898252602082015260400190565b60405180910390a360408051338152602081018690526001600160a01b0385168183015290517f6f0a56b187513a68de343a7829cae4055d04013b5203cb3b46f42ebeb5f3f97a9181900360600190a150505050565b600381815481106103bd57600080fd5b600091825260209091206004909102018054600182015460028301546003909301546001600160a01b0392831694509116919084565b60608060606000805b60035481101561046557856001600160a01b03166003828154811061042357610423610834565b60009182526020909120600160049092020101546001600160a01b031603610453578161044f8161084a565b9250505b8061045d8161084a565b9150506103fc565b5060008167ffffffffffffffff81111561048157610481610863565b6040519080825280602002602001820160405280156104aa578160200160208202803683370190505b50905060008267ffffffffffffffff8111156104c8576104c8610863565b6040519080825280602002602001820160405280156104f1578160200160208202803683370190505b50905060008367ffffffffffffffff81111561050f5761050f610863565b604051908082528060200260200182016040528015610538578160200160208202803683370190505b5090506000805b60035481101561069157896001600160a01b03166003828154811061056657610566610834565b60009182526020909120600160049092020101546001600160a01b03160361067f576003818154811061059b5761059b610834565b600091825260209091206004909102015485516001600160a01b03909116908690849081106105cc576105cc610834565b60200260200101906001600160a01b031690816001600160a01b031681525050600381815481106105ff576105ff610834565b90600052602060002090600402016002015484838151811061062357610623610834565b6020026020010181815250506003818154811061064257610642610834565b90600052602060002090600402016003015483838151811061066657610666610834565b60209081029190910101528161067b8161084a565b9250505b806106898161084a565b91505061053f565b50929891975095509350505050565b80356001600160a01b03811681146106b757600080fd5b919050565b6000806000606084860312156106d157600080fd5b833592506106e1602085016106a0565b91506106ef604085016106a0565b90509250925092565b60006020828403121561070a57600080fd5b5035919050565b60006020828403121561072357600080fd5b61072c826106a0565b9392505050565b600081518084526020808501945080840160005b8381101561076357815187529582019590820190600101610747565b509495945050505050565b606080825284519082018190526000906020906080840190828801845b828110156107b05781516001600160a01b03168452928401929084019060010161078b565b505050838103828501526107c48187610733565b91505082810360408401526107d98185610733565b9695505050505050565b6000602082840312156107f557600080fd5b8151801515811461072c57600080fd5b634e487b7160e01b600052601160045260246000fd5b8082018082111561082e5761082e610805565b92915050565b634e487b7160e01b600052603260045260246000fd5b60006001820161085c5761085c610805565b5060010190565b634e487b7160e01b600052604160045260246000fdfea264697066735822122016f3887e1b565fc710f26aa4d7262166ae80f70ba999f0745e37ad9c371f786364736f6c63430008140033",
  "devdoc": {
    "kind": "dev",
    "methods": {},
    "version": 1
  },
  "userdoc": {
    "kind": "user",
    "methods": {},
    "version": 1
  },
  "storageLayout": {
    "storage": [
      {
        "astId": 115,
        "contract": "contracts/YourContract.sol:project",
        "label": "totalFunds",
        "offset": 0,
        "slot": "0",
        "type": "t_uint256"
      },
      {
        "astId": 117,
        "contract": "contracts/YourContract.sol:project",
        "label": "usdcTokenAddress",
        "offset": 0,
        "slot": "1",
        "type": "t_address"
      },
      {
        "astId": 121,
        "contract": "contracts/YourContract.sol:project",
        "label": "payer",
        "offset": 0,
        "slot": "2",
        "type": "t_mapping(t_address,t_uint256)"
      },
      {
        "astId": 134,
        "contract": "contracts/YourContract.sol:project",
        "label": "transactions",
        "offset": 0,
        "slot": "3",
        "type": "t_array(t_struct(Transaction)130_storage)dyn_storage"
      }
    ],
    "types": {
      "t_address": {
        "encoding": "inplace",
        "label": "address",
        "numberOfBytes": "20"
      },
      "t_array(t_struct(Transaction)130_storage)dyn_storage": {
        "base": "t_struct(Transaction)130_storage",
        "encoding": "dynamic_array",
        "label": "struct project.Transaction[]",
        "numberOfBytes": "32"
      },
      "t_mapping(t_address,t_uint256)": {
        "encoding": "mapping",
        "key": "t_address",
        "label": "mapping(address => uint256)",
        "numberOfBytes": "32",
        "value": "t_uint256"
      },
      "t_struct(Transaction)130_storage": {
        "encoding": "inplace",
        "label": "struct project.Transaction",
        "members": [
          {
            "astId": 123,
            "contract": "contracts/YourContract.sol:project",
            "label": "sender",
            "offset": 0,
            "slot": "0",
            "type": "t_address"
          },
          {
            "astId": 125,
            "contract": "contracts/YourContract.sol:project",
            "label": "receiver",
            "offset": 0,
            "slot": "1",
            "type": "t_address"
          },
          {
            "astId": 127,
            "contract": "contracts/YourContract.sol:project",
            "label": "amountWei",
            "offset": 0,
            "slot": "2",
            "type": "t_uint256"
          },
          {
            "astId": 129,
            "contract": "contracts/YourContract.sol:project",
            "label": "timestamp",
            "offset": 0,
            "slot": "3",
            "type": "t_uint256"
          }
        ],
        "numberOfBytes": "128"
      },
      "t_uint256": {
        "encoding": "inplace",
        "label": "uint256",
        "numberOfBytes": "32"
      }
    }
  }
}